{
  "contractName": "PredictionMarket",
  "abi": [
    {
      "inputs": [
        {
          "internalType": "address",
          "name": "_oracle",
          "type": "address"
        }
      ],
      "stateMutability": "nonpayable",
      "type": "constructor"
    },
    {
      "anonymous": false,
      "inputs": [
        {
          "indexed": true,
          "internalType": "address",
          "name": "gambler",
          "type": "address"
        },
        {
          "indexed": false,
          "internalType": "enum PredictionMarket.Side",
          "name": "side",
          "type": "uint8"
        },
        {
          "indexed": false,
          "internalType": "uint256",
          "name": "amount",
          "type": "uint256"
        }
      ],
      "name": "BetPlaced",
      "type": "event"
    },
    {
      "anonymous": false,
      "inputs": [
        {
          "indexed": true,
          "internalType": "address",
          "name": "gambler",
          "type": "address"
        },
        {
          "indexed": false,
          "internalType": "uint256",
          "name": "amount",
          "type": "uint256"
        }
      ],
      "name": "BetWithdrawn",
      "type": "event"
    },
    {
      "anonymous": false,
      "inputs": [
        {
          "components": [
            {
              "internalType": "enum PredictionMarket.Side",
              "name": "winner",
              "type": "uint8"
            },
            {
              "internalType": "enum PredictionMarket.Side",
              "name": "loser",
              "type": "uint8"
            }
          ],
          "indexed": false,
          "internalType": "struct PredictionMarket.Result",
          "name": "result",
          "type": "tuple"
        }
      ],
      "name": "ResultUpdated",
      "type": "event"
    },
    {
      "inputs": [
        {
          "internalType": "enum PredictionMarket.Side",
          "name": "",
          "type": "uint8"
        }
      ],
      "name": "bets",
      "outputs": [
        {
          "internalType": "uint256",
          "name": "",
          "type": "uint256"
        }
      ],
      "stateMutability": "view",
      "type": "function",
      "constant": true
    },
    {
      "inputs": [
        {
          "internalType": "address",
          "name": "",
          "type": "address"
        },
        {
          "internalType": "enum PredictionMarket.Side",
          "name": "",
          "type": "uint8"
        }
      ],
      "name": "betsPerGambler",
      "outputs": [
        {
          "internalType": "uint256",
          "name": "",
          "type": "uint256"
        }
      ],
      "stateMutability": "view",
      "type": "function",
      "constant": true
    },
    {
      "inputs": [],
      "name": "oracle",
      "outputs": [
        {
          "internalType": "address",
          "name": "",
          "type": "address"
        }
      ],
      "stateMutability": "view",
      "type": "function",
      "constant": true
    },
    {
      "inputs": [
        {
          "internalType": "enum PredictionMarket.Side",
          "name": "_side",
          "type": "uint8"
        }
      ],
      "name": "placeBet",
      "outputs": [],
      "stateMutability": "payable",
      "type": "function",
      "payable": true
    },
    {
      "inputs": [],
      "name": "withdrawGain",
      "outputs": [],
      "stateMutability": "nonpayable",
      "type": "function"
    },
    {
      "inputs": [
        {
          "internalType": "enum PredictionMarket.Side",
          "name": "_winner",
          "type": "uint8"
        },
        {
          "internalType": "enum PredictionMarket.Side",
          "name": "_loser",
          "type": "uint8"
        }
      ],
      "name": "reportResult",
      "outputs": [],
      "stateMutability": "nonpayable",
      "type": "function"
    }
  ],
  "bytecode": "0x608060405234801561001057600080fd5b50604051610f30380380610f30833981810160405281019061003291906100dc565b80600460006101000a81548173ffffffffffffffffffffffffffffffffffffffff021916908373ffffffffffffffffffffffffffffffffffffffff16021790555050610109565b600080fd5b600073ffffffffffffffffffffffffffffffffffffffff82169050919050565b60006100a98261007e565b9050919050565b6100b98161009e565b81146100c457600080fd5b50565b6000815190506100d6816100b0565b92915050565b6000602082840312156100f2576100f1610079565b5b6000610100848285016100c7565b91505092915050565b610e18806101186000396000f3fe6080604052600436106100555760003560e01c80632b539c861461005a57806343046844146100715780634ec942b71461008d5780637dc0d1d0146100b65780637e0ecc00146100e15780639d5a37391461011e575b600080fd5b34801561006657600080fd5b5061006f61015b565b005b61008b60048036038101906100869190610814565b6104c7565b005b34801561009957600080fd5b506100b460048036038101906100af9190610841565b610649565b005b3480156100c257600080fd5b506100cb610787565b6040516100d891906108c2565b60405180910390f35b3480156100ed57600080fd5b5061010860048036038101906101039190610814565b6107ad565b60405161011591906108f6565b60405180910390f35b34801561012a57600080fd5b506101456004803603810190610140919061093d565b6107c5565b60405161015291906108f6565b60405180910390f35b6000600360003373ffffffffffffffffffffffffffffffffffffffff1673ffffffffffffffffffffffffffffffffffffffff16815260200190815260200160002060008060000160009054906101000a900460ff1660018111156101c2576101c161097d565b5b60018111156101d4576101d361097d565b5b815260200190815260200160002054905060008111610228576040517f08c379a000000000000000000000000000000000000000000000000000000000815260040161021f90610a09565b60405180910390fd5b60011515600160009054906101000a900460ff1615151461027e576040517f08c379a000000000000000000000000000000000000000000000000000000000815260040161027590610a75565b60405180910390fd5b60003390506000600260008060000160009054906101000a900460ff1660018111156102ad576102ac61097d565b5b60018111156102bf576102be61097d565b5b81526020019081526020016000205483600260008060000160019054906101000a900460ff1660018111156102f7576102f661097d565b5b60018111156103095761030861097d565b5b8152602001908152602001600020546103229190610ac4565b61032c9190610b4d565b836103379190610b7e565b90506000600360003373ffffffffffffffffffffffffffffffffffffffff1673ffffffffffffffffffffffffffffffffffffffff168152602001908152602001600020600080600181111561038f5761038e61097d565b5b60018111156103a1576103a061097d565b5b8152602001908152602001600020819055506000600360003373ffffffffffffffffffffffffffffffffffffffff1673ffffffffffffffffffffffffffffffffffffffff16815260200190815260200160002060006001808111156104095761040861097d565b5b600181111561041b5761041a61097d565b5b8152602001908152602001600020819055508173ffffffffffffffffffffffffffffffffffffffff166108fc829081150290604051600060405180830381858888f19350505050158015610473573d6000803e3d6000fd5b503373ffffffffffffffffffffffffffffffffffffffff167f683d243150c27f08a9c5bfd46b8393b8f2aa713579bda11396ede50f94f70347826040516104ba91906108f6565b60405180910390a2505050565b60001515600160009054906101000a900460ff1615151461051d576040517f08c379a000000000000000000000000000000000000000000000000000000000815260040161051490610c20565b60405180910390fd5b34600260008360018111156105355761053461097d565b5b60018111156105475761054661097d565b5b815260200190815260200160002060008282546105649190610b7e565b9250508190555034600360003373ffffffffffffffffffffffffffffffffffffffff1673ffffffffffffffffffffffffffffffffffffffff16815260200190815260200160002060008360018111156105c0576105bf61097d565b5b60018111156105d2576105d161097d565b5b815260200190815260200160002060008282546105ef9190610b7e565b925050819055503373ffffffffffffffffffffffffffffffffffffffff167f9f6b4cced64244a64465098f682029975b1614400b96bc6bd12c668083719166823460405161063e929190610c88565b60405180910390a250565b3373ffffffffffffffffffffffffffffffffffffffff16600460009054906101000a900473ffffffffffffffffffffffffffffffffffffffff1673ffffffffffffffffffffffffffffffffffffffff16146106d9576040517f08c379a00000000000000000000000000000000000000000000000000000000081526004016106d090610cfd565b60405180910390fd5b816000800160006101000a81548160ff02191690836001811115610700576106ff61097d565b5b0217905550806000800160016101000a81548160ff0219169083600181111561072c5761072b61097d565b5b021790555060018060006101000a81548160ff0219169083151502179055507f68417437868e13c8883e36d456bd2b9191c6472245cd2f236231bcfff6e05a42600060405161077b9190610dc7565b60405180910390a15050565b600460009054906101000a900473ffffffffffffffffffffffffffffffffffffffff1681565b60026020528060005260406000206000915090505481565b6003602052816000526040600020602052806000526040600020600091509150505481565b600080fd5b600281106107fc57600080fd5b50565b60008135905061080e816107ef565b92915050565b60006020828403121561082a576108296107ea565b5b6000610838848285016107ff565b91505092915050565b60008060408385031215610858576108576107ea565b5b6000610866858286016107ff565b9250506020610877858286016107ff565b9150509250929050565b600073ffffffffffffffffffffffffffffffffffffffff82169050919050565b60006108ac82610881565b9050919050565b6108bc816108a1565b82525050565b60006020820190506108d760008301846108b3565b92915050565b6000819050919050565b6108f0816108dd565b82525050565b600060208201905061090b60008301846108e7565b92915050565b61091a816108a1565b811461092557600080fd5b50565b60008135905061093781610911565b92915050565b60008060408385031215610954576109536107ea565b5b600061096285828601610928565b9250506020610973858286016107ff565b9150509250929050565b7f4e487b7100000000000000000000000000000000000000000000000000000000600052602160045260246000fd5b600082825260208201905092915050565b7f796f7520646f206e6f74206861766520616e792077696e6e696e672062657400600082015250565b60006109f3601f836109ac565b91506109fe826109bd565b602082019050919050565b60006020820190508181036000830152610a22816109e6565b9050919050565b7f656c656374696f6e206e6f742066696e69736865642079657400000000000000600082015250565b6000610a5f6019836109ac565b9150610a6a82610a29565b602082019050919050565b60006020820190508181036000830152610a8e81610a52565b9050919050565b7f4e487b7100000000000000000000000000000000000000000000000000000000600052601160045260246000fd5b6000610acf826108dd565b9150610ada836108dd565b9250817fffffffffffffffffffffffffffffffffffffffffffffffffffffffffffffffff0483118215151615610b1357610b12610a95565b5b828202905092915050565b7f4e487b7100000000000000000000000000000000000000000000000000000000600052601260045260246000fd5b6000610b58826108dd565b9150610b63836108dd565b925082610b7357610b72610b1e565b5b828204905092915050565b6000610b89826108dd565b9150610b94836108dd565b9250827fffffffffffffffffffffffffffffffffffffffffffffffffffffffffffffffff03821115610bc957610bc8610a95565b5b828201905092915050565b7f656c656374696f6e2069732066696e6973686564000000000000000000000000600082015250565b6000610c0a6014836109ac565b9150610c1582610bd4565b602082019050919050565b60006020820190508181036000830152610c3981610bfd565b9050919050565b60028110610c5157610c5061097d565b5b50565b6000819050610c6282610c40565b919050565b6000610c7282610c54565b9050919050565b610c8281610c67565b82525050565b6000604082019050610c9d6000830185610c79565b610caa60208301846108e7565b9392505050565b7f6f6e6c79206f7261636c65000000000000000000000000000000000000000000600082015250565b6000610ce7600b836109ac565b9150610cf282610cb1565b602082019050919050565b60006020820190508181036000830152610d1681610cda565b9050919050565b60008160001c9050919050565b600060ff82169050919050565b6000610d4a610d4583610d1d565b610d2a565b9050919050565b610d5a81610c67565b82525050565b60008160081c9050919050565b6000610d80610d7b83610d60565b610d2a565b9050919050565b604082016000808301549050610d9c81610d37565b610da96000860182610d51565b50610db381610d6d565b610dc06020860182610d51565b5050505050565b6000604082019050610ddc6000830184610d87565b9291505056fea2646970667358221220cd6c75160e91e8e29f7b8b1541814580bf7ec5498952086e00de5cc94f4466b064736f6c634300080e0033",
  "immutableReferences": {},
  "source": "// SPDX-License-Identifier: MIT\npragma solidity >=0.4.22 <0.9.0;\n\ncontract PredictionMarket {\n    enum Side {\n        Biden,\n        Trump\n    }\n    struct Result {\n        Side winner;\n        Side loser;\n    }\n    Result result;\n    bool electionFinished;\n\n    mapping(Side => uint256) public bets;\n    mapping(address => mapping(Side => uint256)) public betsPerGambler;\n    address public oracle;\n\n    event BetPlaced(address indexed gambler, Side side, uint256 amount);\n    event ResultUpdated(Result result);\n    event BetWithdrawn(address indexed gambler, uint256 amount);\n\n    constructor(address _oracle) {\n        oracle = _oracle;\n    }\n\n    function placeBet(Side _side) external payable {\n        require(electionFinished == false, \"election is finished\");\n        bets[_side] += msg.value;\n        betsPerGambler[msg.sender][_side] += msg.value;\n        emit BetPlaced(msg.sender, _side, msg.value);\n    }\n\n    function withdrawGain() external {\n        uint256 gamblerBet = betsPerGambler[msg.sender][result.winner];\n        require(gamblerBet > 0, \"you do not have any winning bet\");\n        require(electionFinished == true, \"election not finished yet\");\n        address payable winner = payable(msg.sender);\n        uint256 gain = gamblerBet +\n            (bets[result.loser] * gamblerBet) /\n            bets[result.winner];\n        betsPerGambler[msg.sender][Side.Biden] = 0;\n        betsPerGambler[msg.sender][Side.Trump] = 0;\n        winner.transfer(gain);\n        emit BetWithdrawn(msg.sender, gain);\n    }\n\n    function reportResult(Side _winner, Side _loser) external {\n        require(oracle == msg.sender, \"only oracle\");\n        result.winner = _winner;\n        result.loser = _loser;\n        electionFinished = true;\n        emit ResultUpdated(result);\n    }\n}\n",
  "sourcePath": "/home/user/Documents/Truffle-projects/prediction_market/contracts/PredictionMarket.sol",
  "compiler": {
    "name": "solc",
    "version": "0.8.14+commit.80d49f37.Emscripten.clang"
  },
  "schemaVersion": "3.4.7",
  "updatedAt": "2022-07-25T04:54:16.880Z",
  "networkType": "ethereum",
  "devdoc": {
    "kind": "dev",
    "methods": {},
    "version": 1
  },
  "userdoc": {
    "kind": "user",
    "methods": {},
    "version": 1
  }
}