{
  "contractName": "PredictionMarket",
  "abi": [
    {
      "inputs": [
        {
          "internalType": "address",
          "name": "_oracle",
          "type": "address"
        }
      ],
      "stateMutability": "nonpayable",
      "type": "constructor"
    },
    {
      "inputs": [
        {
          "internalType": "enum PredictionMarket.Side",
          "name": "",
          "type": "uint8"
        }
      ],
      "name": "bets",
      "outputs": [
        {
          "internalType": "uint256",
          "name": "",
          "type": "uint256"
        }
      ],
      "stateMutability": "view",
      "type": "function",
      "constant": true
    },
    {
      "inputs": [
        {
          "internalType": "address",
          "name": "",
          "type": "address"
        },
        {
          "internalType": "enum PredictionMarket.Side",
          "name": "",
          "type": "uint8"
        }
      ],
      "name": "betsPerGambler",
      "outputs": [
        {
          "internalType": "uint256",
          "name": "",
          "type": "uint256"
        }
      ],
      "stateMutability": "view",
      "type": "function",
      "constant": true
    },
    {
      "inputs": [],
      "name": "oracle",
      "outputs": [
        {
          "internalType": "address",
          "name": "",
          "type": "address"
        }
      ],
      "stateMutability": "view",
      "type": "function",
      "constant": true
    },
    {
      "inputs": [
        {
          "internalType": "enum PredictionMarket.Side",
          "name": "_side",
          "type": "uint8"
        }
      ],
      "name": "placeBet",
      "outputs": [],
      "stateMutability": "payable",
      "type": "function",
      "payable": true
    },
    {
      "inputs": [],
      "name": "withdrawGain",
      "outputs": [],
      "stateMutability": "nonpayable",
      "type": "function"
    },
    {
      "inputs": [
        {
          "internalType": "enum PredictionMarket.Side",
          "name": "_winner",
          "type": "uint8"
        },
        {
          "internalType": "enum PredictionMarket.Side",
          "name": "_loser",
          "type": "uint8"
        }
      ],
      "name": "reportResult",
      "outputs": [],
      "stateMutability": "nonpayable",
      "type": "function"
    }
  ],
  "bytecode": "0x608060405234801561001057600080fd5b50604051610d24380380610d24833981810160405281019061003291906100dc565b80600460006101000a81548173ffffffffffffffffffffffffffffffffffffffff021916908373ffffffffffffffffffffffffffffffffffffffff16021790555050610109565b600080fd5b600073ffffffffffffffffffffffffffffffffffffffff82169050919050565b60006100a98261007e565b9050919050565b6100b98161009e565b81146100c457600080fd5b50565b6000815190506100d6816100b0565b92915050565b6000602082840312156100f2576100f1610079565b5b6000610100848285016100c7565b91505092915050565b610c0c806101186000396000f3fe6080604052600436106100555760003560e01c80632b539c861461005a57806343046844146100715780634ec942b71461008d5780637dc0d1d0146100b65780637e0ecc00146100e15780639d5a37391461011e575b600080fd5b34801561006657600080fd5b5061006f61015b565b005b61008b6004803603810190610086919061073e565b610479565b005b34801561009957600080fd5b506100b460048036038101906100af919061076b565b6105ab565b005b3480156100c257600080fd5b506100cb6106b1565b6040516100d891906107ec565b60405180910390f35b3480156100ed57600080fd5b506101086004803603810190610103919061073e565b6106d7565b6040516101159190610820565b60405180910390f35b34801561012a57600080fd5b5061014560048036038101906101409190610867565b6106ef565b6040516101529190610820565b60405180910390f35b6000600360003373ffffffffffffffffffffffffffffffffffffffff1673ffffffffffffffffffffffffffffffffffffffff16815260200190815260200160002060008060000160009054906101000a900460ff1660018111156101c2576101c16108a7565b5b60018111156101d4576101d36108a7565b5b815260200190815260200160002054905060008111610228576040517f08c379a000000000000000000000000000000000000000000000000000000000815260040161021f90610933565b60405180910390fd5b60011515600160009054906101000a900460ff1615151461027e576040517f08c379a00000000000000000000000000000000000000000000000000000000081526004016102759061099f565b60405180910390fd5b60003390506000600260008060000160009054906101000a900460ff1660018111156102ad576102ac6108a7565b5b60018111156102bf576102be6108a7565b5b81526020019081526020016000205483600260008060000160019054906101000a900460ff1660018111156102f7576102f66108a7565b5b6001811115610309576103086108a7565b5b81526020019081526020016000205461032291906109ee565b61032c9190610a77565b836103379190610aa8565b90506000600360003373ffffffffffffffffffffffffffffffffffffffff1673ffffffffffffffffffffffffffffffffffffffff168152602001908152602001600020600080600181111561038f5761038e6108a7565b5b60018111156103a1576103a06108a7565b5b8152602001908152602001600020819055506000600360003373ffffffffffffffffffffffffffffffffffffffff1673ffffffffffffffffffffffffffffffffffffffff1681526020019081526020016000206000600180811115610409576104086108a7565b5b600181111561041b5761041a6108a7565b5b8152602001908152602001600020819055508173ffffffffffffffffffffffffffffffffffffffff166108fc829081150290604051600060405180830381858888f19350505050158015610473573d6000803e3d6000fd5b50505050565b60001515600160009054906101000a900460ff161515146104cf576040517f08c379a00000000000000000000000000000000000000000000000000000000081526004016104c690610b4a565b60405180910390fd5b34600260008360018111156104e7576104e66108a7565b5b60018111156104f9576104f86108a7565b5b815260200190815260200160002060008282546105169190610aa8565b9250508190555034600360003373ffffffffffffffffffffffffffffffffffffffff1673ffffffffffffffffffffffffffffffffffffffff1681526020019081526020016000206000836001811115610572576105716108a7565b5b6001811115610584576105836108a7565b5b815260200190815260200160002060008282546105a19190610aa8565b9250508190555050565b3373ffffffffffffffffffffffffffffffffffffffff16600460009054906101000a900473ffffffffffffffffffffffffffffffffffffffff1673ffffffffffffffffffffffffffffffffffffffff161461063b576040517f08c379a000000000000000000000000000000000000000000000000000000000815260040161063290610bb6565b60405180910390fd5b816000800160006101000a81548160ff02191690836001811115610662576106616108a7565b5b0217905550806000800160016101000a81548160ff0219169083600181111561068e5761068d6108a7565b5b021790555060018060006101000a81548160ff0219169083151502179055505050565b600460009054906101000a900473ffffffffffffffffffffffffffffffffffffffff1681565b60026020528060005260406000206000915090505481565b6003602052816000526040600020602052806000526040600020600091509150505481565b600080fd5b6002811061072657600080fd5b50565b60008135905061073881610719565b92915050565b60006020828403121561075457610753610714565b5b600061076284828501610729565b91505092915050565b6000806040838503121561078257610781610714565b5b600061079085828601610729565b92505060206107a185828601610729565b9150509250929050565b600073ffffffffffffffffffffffffffffffffffffffff82169050919050565b60006107d6826107ab565b9050919050565b6107e6816107cb565b82525050565b600060208201905061080160008301846107dd565b92915050565b6000819050919050565b61081a81610807565b82525050565b60006020820190506108356000830184610811565b92915050565b610844816107cb565b811461084f57600080fd5b50565b6000813590506108618161083b565b92915050565b6000806040838503121561087e5761087d610714565b5b600061088c85828601610852565b925050602061089d85828601610729565b9150509250929050565b7f4e487b7100000000000000000000000000000000000000000000000000000000600052602160045260246000fd5b600082825260208201905092915050565b7f796f7520646f206e6f74206861766520616e792077696e6e696e672062657400600082015250565b600061091d601f836108d6565b9150610928826108e7565b602082019050919050565b6000602082019050818103600083015261094c81610910565b9050919050565b7f656c656374696f6e206e6f742066696e69736865642079657400000000000000600082015250565b60006109896019836108d6565b915061099482610953565b602082019050919050565b600060208201905081810360008301526109b88161097c565b9050919050565b7f4e487b7100000000000000000000000000000000000000000000000000000000600052601160045260246000fd5b60006109f982610807565b9150610a0483610807565b9250817fffffffffffffffffffffffffffffffffffffffffffffffffffffffffffffffff0483118215151615610a3d57610a3c6109bf565b5b828202905092915050565b7f4e487b7100000000000000000000000000000000000000000000000000000000600052601260045260246000fd5b6000610a8282610807565b9150610a8d83610807565b925082610a9d57610a9c610a48565b5b828204905092915050565b6000610ab382610807565b9150610abe83610807565b9250827fffffffffffffffffffffffffffffffffffffffffffffffffffffffffffffffff03821115610af357610af26109bf565b5b828201905092915050565b7f656c656374696f6e2069732066696e6973686564000000000000000000000000600082015250565b6000610b346014836108d6565b9150610b3f82610afe565b602082019050919050565b60006020820190508181036000830152610b6381610b27565b9050919050565b7f6f6e6c79206f7261636c65000000000000000000000000000000000000000000600082015250565b6000610ba0600b836108d6565b9150610bab82610b6a565b602082019050919050565b60006020820190508181036000830152610bcf81610b93565b905091905056fea26469706673582212205aecf04cbf337fff9173cdb8ca84e123c5a1ef92392d0e4b5c9a76655e2f511e64736f6c634300080e0033",
  "immutableReferences": {},
  "source": "// SPDX-License-Identifier: MIT\npragma solidity >=0.4.22 <0.9.0;\n\ncontract PredictionMarket {\n    enum Side {\n        Biden,\n        Trump\n    }\n    struct Result {\n        Side winner;\n        Side loser;\n    }\n    Result result;\n    bool electionFinished;\n\n    mapping(Side => uint256) public bets;\n    mapping(address => mapping(Side => uint256)) public betsPerGambler;\n    address public oracle;\n\n    constructor(address _oracle) {\n        oracle = _oracle;\n    }\n\n    function placeBet(Side _side) external payable {\n        require(electionFinished == false, \"election is finished\");\n        bets[_side] += msg.value;\n        betsPerGambler[msg.sender][_side] += msg.value;\n    }\n\n    function withdrawGain() external {\n        uint256 gamblerBet = betsPerGambler[msg.sender][result.winner];\n        require(gamblerBet > 0, \"you do not have any winning bet\");\n        require(electionFinished == true, \"election not finished yet\");\n        address payable winner = payable(msg.sender);\n        uint256 gain = gamblerBet +\n            (bets[result.loser] * gamblerBet) /\n            bets[result.winner];\n        betsPerGambler[msg.sender][Side.Biden] = 0;\n        betsPerGambler[msg.sender][Side.Trump] = 0;\n        winner.transfer(gain);\n    }\n\n    function reportResult(Side _winner, Side _loser) external {\n        require(oracle == msg.sender, \"only oracle\");\n        result.winner = _winner;\n        result.loser = _loser;\n        electionFinished = true;\n    }\n}\n",
  "sourcePath": "/home/user/Documents/Truffle-projects/prediction_market/contracts/PredictionMarket.sol",
  "compiler": {
    "name": "solc",
    "version": "0.8.14+commit.80d49f37.Emscripten.clang"
  },
  "schemaVersion": "3.4.7",
  "updatedAt": "2022-06-22T06:24:31.204Z",
  "networkType": "ethereum",
  "devdoc": {
    "kind": "dev",
    "methods": {},
    "version": 1
  },
  "userdoc": {
    "kind": "user",
    "methods": {},
    "version": 1
  }
}